{
  "_format": "hh-sol-artifact-1",
  "contractName": "Bank",
  "sourceName": "contracts/Bank.sol",
  "abi": [
    {
      "inputs": [],
      "stateMutability": "nonpayable",
      "type": "constructor"
    },
    {
      "inputs": [
        {
          "internalType": "address",
          "name": "",
          "type": "address"
        }
      ],
      "name": "accounts",
      "outputs": [
        {
          "internalType": "uint256",
          "name": "",
          "type": "uint256"
        }
      ],
      "stateMutability": "view",
      "type": "function"
    },
    {
      "inputs": [],
      "name": "deposit",
      "outputs": [],
      "stateMutability": "payable",
      "type": "function"
    },
    {
      "inputs": [],
      "name": "totalAssets",
      "outputs": [
        {
          "internalType": "uint256",
          "name": "",
          "type": "uint256"
        }
      ],
      "stateMutability": "view",
      "type": "function"
    },
    {
      "inputs": [
        {
          "internalType": "uint256",
          "name": "_amount",
          "type": "uint256"
        },
        {
          "internalType": "address",
          "name": "_tokenContract",
          "type": "address"
        }
      ],
      "name": "withdraw",
      "outputs": [],
      "stateMutability": "nonpayable",
      "type": "function"
    }
  ],
  "bytecode": "0x608060405234801561001057600080fd5b5061075d806100206000396000f3fe60806040526004361061003e5760003560e01c8062f714ce1461004357806301e1d1141461006c5780635e5c06e214610097578063d0e30db0146100d4575b600080fd5b34801561004f57600080fd5b5061006a600480360381019061006591906103ca565b6100de565b005b34801561007857600080fd5b506100816102bd565b60405161008e9190610525565b60405180910390f35b3480156100a357600080fd5b506100be60048036038101906100b991906103a1565b6102c5565b6040516100cb9190610525565b60405180910390f35b6100dc6102dd565b005b6000803373ffffffffffffffffffffffffffffffffffffffff1673ffffffffffffffffffffffffffffffffffffffff1681526020019081526020016000205482111561015f576040517f08c379a0000000000000000000000000000000000000000000000000000000008152600401610156906104c5565b60405180910390fd5b600082116101a2576040517f08c379a000000000000000000000000000000000000000000000000000000000815260040161019990610505565b60405180910390fd5b816000803373ffffffffffffffffffffffffffffffffffffffff1673ffffffffffffffffffffffffffffffffffffffff16815260200190815260200160002060008282546101f091906105a7565b925050819055503373ffffffffffffffffffffffffffffffffffffffff166108fc839081150290604051600060405180830381858888f1935050505015801561023d573d6000803e3d6000fd5b5060008190508073ffffffffffffffffffffffffffffffffffffffff166340c10f1933670de0b6b3a76400006040518363ffffffff1660e01b815260040161028692919061049c565b600060405180830381600087803b1580156102a057600080fd5b505af11580156102b4573d6000803e3d6000fd5b50505050505050565b600047905090565b60006020528060005260406000206000915090505481565b60003411610320576040517f08c379a0000000000000000000000000000000000000000000000000000000008152600401610317906104e5565b60405180910390fd5b346000803373ffffffffffffffffffffffffffffffffffffffff1673ffffffffffffffffffffffffffffffffffffffff168152602001908152602001600020600082825461036e9190610551565b92505081905550565b600081359050610386816106f9565b92915050565b60008135905061039b81610710565b92915050565b6000602082840312156103b357600080fd5b60006103c184828501610377565b91505092915050565b600080604083850312156103dd57600080fd5b60006103eb8582860161038c565b92505060206103fc85828601610377565b9150509250929050565b61040f816105db565b82525050565b61041e81610617565b82525050565b6000610431602183610540565b915061043c82610658565b604082019050919050565b6000610454601583610540565b915061045f826106a7565b602082019050919050565b6000610477601683610540565b9150610482826106d0565b602082019050919050565b6104968161060d565b82525050565b60006040820190506104b16000830185610406565b6104be6020830184610415565b9392505050565b600060208201905081810360008301526104de81610424565b9050919050565b600060208201905081810360008301526104fe81610447565b9050919050565b6000602082019050818103600083015261051e8161046a565b9050919050565b600060208201905061053a600083018461048d565b92915050565b600082825260208201905092915050565b600061055c8261060d565b91506105678361060d565b9250827fffffffffffffffffffffffffffffffffffffffffffffffffffffffffffffffff0382111561059c5761059b610629565b5b828201905092915050565b60006105b28261060d565b91506105bd8361060d565b9250828210156105d0576105cf610629565b5b828203905092915050565b60006105e6826105ed565b9050919050565b600073ffffffffffffffffffffffffffffffffffffffff82169050919050565b6000819050919050565b60006106228261060d565b9050919050565b7f4e487b7100000000000000000000000000000000000000000000000000000000600052601160045260246000fd5b7f63616e6e6f74207769746864726177206d6f7265207468616e206465706f736960008201527f7400000000000000000000000000000000000000000000000000000000000000602082015250565b7f6d757374206465706f736974203020616d6f756e740000000000000000000000600082015250565b7f63616e2774207769746864726177206e6f7468696e6700000000000000000000600082015250565b610702816105db565b811461070d57600080fd5b50565b6107198161060d565b811461072457600080fd5b5056fea2646970667358221220da0de1520dff1172f2fcd9027680ecb08b64bd18c1db59b08e54c6778317eebf64736f6c63430008040033",
  "linkReferences": {},
  "deployedLinkReferences": {}
}